:0A0000000C9465000C9400000C94B1
:10000A0000000C9400000C9400000C9400000C9466
:10001A0000000C9400000C9400000C9400000C9456
:10002A0000000C9400000C9400000C9400000C9446
:10003A0000000C9400000C9400000C9400000C9436
:10004A0000000C9400000C94AC000C949D000C94DD
:10005A0000000C9400000C9400000C94C8000C944E
:10006A0000000C94E8000C9400000C9400000C941E
:10007A0000000C9400000C9400000C9400000C94F6
:10008A0000000C9400000C9400000C9400000C94E6
:10009A0000000C9400000C9400000C9400000C94D6
:1000AA0000001027E80364000A00010000100001A4
:1000BA00100001000000000004000700BE0000005C
:1000CA00F894EE27EFBBF1E0F5BFE5BFF8E1A8959C
:1000DA00A4B7A77FA4BFF0936000E09360008DE00F
:1000EA00A2E0BB27ED938A95E9F780E09AE0A0E0C9
:1000FA00B1E0ED930197E9F7E2ECF0E08591959193
:10010A00009761F0A591B59105901590BF01F00196
:10011A0005900D920197E1F7FB01F0CFE0E0EEBB0D
:10012A00EFEFEDBFEAE0EEBFC0E8D3E00C941D01AB
:10013A000E94E1017E0E8F1EEAEFF0E0E715F80556
:10014A0028F477248824E1E4EA9355D00EC00E946B
:10015A00E1019E0EAF1EE4E6F0E0E915FA0528F487
:10016A009924AA24E0E7EA9346D0E991EFBFF991EE
:10017A00E991B991A9919991899179916991F990A6
:10018A00199009901895EA93FA93EFB7EA931A939C
:10019A000A931091C8000091CE00E12FEC7181F40E
:1001AA00E42D4394F0E0E058FC4F0083E8E0E415C6
:1001BA0009F444246394E8E0E61511F46624F09AFD
:1001CA000991199113C0EA93FA93EFB7EA93BB2006
:1001DA0069F0BA94EC2DC394F0E0E857FC4FE08143
:1001EA00E093CE00E8E0EC1509F4CC24E991EFBFE6
:1001FA00F991E9911895E8E0EB15E9F3F894BB2039
:10020A0021F4E091C800E07269F4E52D5394F0E01E
:10021A00E857FC4FA881A083E8E0E51509F45524C6
:10022A00B39403C0E881E093CE00789421960895B0
:10023A00E0E8E0936100E0E0E0936100E5B9EFE017
:10024A00E4B9E0E0E8B9E7B9EBB9EAB9EEB9EDB972
:10025A00E1BBE0BBE9BDE2BFE2E0E4BDE4E0E5BD4D
:10026A00E0E0E6BDEAEFE7BDE0E0E8BDE09380004C
:10027A00E4E0E0938100E0E0E0938500E09384000D
:10028A00E0938700E0938600E0938900E09388007A
:10029A00E0938B00E0938A00E0938D00E0938C005A
:1002AA00E0939000E0939100E0939500E09394002E
:1002BA00E0939700E0939600E0939900E09398000A
:1002CA00E0939B00E0939A00E0939D00E0939C00EA
:1002DA00E2B7EF7CE2BFE0E0E093C000E093C10048
:1002EA00E093C200E093C3000E94F101E093BE00D4
:1002FA000E94F101E093CF000E94F101E093D00047
:10030A000E94F101E093D1000E94F101E093D20032
:10031A00E0E0E093D400E0936900E0936A00EDBB6B
:10032A00E0936B00E0936800E2E0E0936E00E1E0A6
:10033A00E0936F00E0E0E0937100E0937200E093D5
:10034A00C800E8EDE093C900E6E0E093CA00E0E007
:10035A00E093CD00E8E0E093CC00E0E8E0BFE0E025
:10036A00E0937B00E0937F00E0937A00ECBDE0939A
:10037A00BC00E093D700E093D800E093DA007894C9
:10038A00EDE7F0E0E715F80510F0289A06C0EDE76A
:10039A00F0E0E715F80508F42898E2E3F0E0E9153B
:1003AA00FA0510F0299A06C0E2E3F0E0E915FA0529
:1003BA0008F42998E5CFFFCF0A921A92FA926A9323
:1003CA007A938A939A93AA93BA93EA93FA93EFB792
:1003DA00EA93E1E0F0E00895E0E0E093BF000895D9
:00000001FF
