:080000000C945C000C9400005C
:100008000C9400000C9400000C9400000C94000068
:100018000C9400000C9400000C9400000C94000058
:100028000C9400000C9400000C9400000C94000048
:100038000C9400000C9400000C9400000C94000038
:100048000C9400000C9400000C949F000C949400F5
:100058000C9400000C9400000C9400000C94000018
:100068000C9400000C9400000C9400000C94000008
:100078000C9400000C9400000C9400000C940000F8
:100088000C9400000C9400000C9400000C940000E8
:100098000C9400000C9400000C9400000C940000D8
:1000A8000C9400000000000004000300AC000000F5
:1000B800F894EE27EFBBF1E0F5BFE5BFF8E1A895AE
:1000C800A4B7A77FA4BFF0936000E09360008DE021
:1000D800A2E0BB27ED938A95E9F780E09AE0A0E0DB
:1000E800B1E0ED930197E9F7E0EBF0E085919591A8
:1000F800009761F0A591B59105901590BF01F001A9
:1001080005900D920197E1F7FB01F0CFE0E0EEBB1F
:10011800EFEFEDBFEAE0EEBFC0E8D3E00C94AE002D
:10012800CCD03E0E4F1EEAEFF0E0E315F40510F4D4
:10013800332444240AC0C1D05E0E6F1EE4E6F0E00A
:10014800E515F60510F455246624E991EFBFF991F9
:10015800E9911895E0E8E0936100E0E0E093610040
:10016800E5B9EFE0E4B9E0E0E8B9E7B9EBB9EAB935
:10017800EEB9EDB9E1BBE0BBE9BDE2BFE2E0E4BD49
:10018800E4E0E5BDE0E0E6BDEAEFE7BDE0E0E8BDBC
:10019800E0938000E4E0E0938100E0E0E0938500F4
:1001A800E0938400E0938700E0938600E093890061
:1001B800E0938800E0938B00E0938A00E0938D0041
:1001C800E0938C00E0939000E0939100E093950019
:1001D800E0939400E0939700E0939600E0939900F1
:1001E800E0939800E0939B00E0939A00E0939D00D1
:1001F800E0939C00E2B7EF7CE2BFE0E0E093C00050
:10020800E093C100E093C200E093C3005DD0E093A7
:10021800BE005AD0E093CF0057D0E093D00054D01E
:10022800E093D10051D0E093D200E0E0E093D40015
:10023800E0936900E0936A00EDBBE0936B00E09304
:100248006800E2E0E0936E00E1E0E0936F00E0E038
:10025800E0937100E0937200E093C900E0E8E0BF2A
:10026800E0E0E0937B00E0937F00E0937A00ECBD50
:10027800E093BC00E093D700E093D800E093DA0065
:100288007894EDE7F0E0E315F40510F0289A06C03D
:10029800EDE7F0E0E315F40508F42898E2E3F0E070
:1002A800E515F60510F0299A06C0E2E3F0E0E51539
:1002B800F60508F42998E5CFFFCFEA93FA93EFB74C
:1002C800EA93E1E0F0E00895E0E0E093BF000895EC
:00000001FF
